{
    "contract_name": "Calculator",
    "sourcePath": "/home/toniya/finterra/snak/contracts/Calculator.sol",
    "source": "pragma solidity ^0.4.23;\n\ncontract Calculator {\n\n    function Sum(int x1, int x2) public returns(int) {\n\n        return (x1 + x2);\n    }\n\n    function Mul(int x1, int x2) public returns(int) {\n\n        return (x1 * x2);\n    }\n\n    function Div(int x1, int x2) public returns(int) {\n\n        return (x1 / x2);\n    }\n\n    function Sub(int x1, int x2) public returns(int) {\n\n        return (x1 - x2);\n    }\n\n}",
    "abi": [
        {
            "constant": false,
            "inputs": [
                {
                    "name": "x1",
                    "type": "int256"
                },
                {
                    "name": "x2",
                    "type": "int256"
                }
            ],
            "name": "Sum",
            "outputs": [
                {
                    "name": "",
                    "type": "int256"
                }
            ],
            "payable": false,
            "stateMutability": "nonpayable",
            "type": "function"
        },
        {
            "constant": false,
            "inputs": [
                {
                    "name": "x1",
                    "type": "int256"
                },
                {
                    "name": "x2",
                    "type": "int256"
                }
            ],
            "name": "Mul",
            "outputs": [
                {
                    "name": "",
                    "type": "int256"
                }
            ],
            "payable": false,
            "stateMutability": "nonpayable",
            "type": "function"
        },
        {
            "constant": false,
            "inputs": [
                {
                    "name": "x1",
                    "type": "int256"
                },
                {
                    "name": "x2",
                    "type": "int256"
                }
            ],
            "name": "Div",
            "outputs": [
                {
                    "name": "",
                    "type": "int256"
                }
            ],
            "payable": false,
            "stateMutability": "nonpayable",
            "type": "function"
        },
        {
            "constant": false,
            "inputs": [
                {
                    "name": "x1",
                    "type": "int256"
                },
                {
                    "name": "x2",
                    "type": "int256"
                }
            ],
            "name": "Sub",
            "outputs": [
                {
                    "name": "",
                    "type": "int256"
                }
            ],
            "payable": false,
            "stateMutability": "nonpayable",
            "type": "function"
        }
    ],
    "bytecode": "0x608060405234801561001057600080fd5b506101fc806100206000396000f300608060405260043610610062576000357c0100000000000000000000000000000000000000000000000000000000900463ffffffff168063166dec531461006757806375aac69e146100b2578063eb638f12146100fd578063fa94904d14610148575b600080fd5b34801561007357600080fd5b5061009c6004803603810190808035906020019092919080359060200190929190505050610193565b6040518082815260200191505060405180910390f35b3480156100be57600080fd5b506100e760048036038101908080359060200190929190803590602001909291905050506101a0565b6040518082815260200191505060405180910390f35b34801561010957600080fd5b5061013260048036038101908080359060200190929190803590602001909291905050506101b6565b6040518082815260200191505060405180910390f35b34801561015457600080fd5b5061017d60048036038101908080359060200190929190803590602001909291905050506101c3565b6040518082815260200191505060405180910390f35b6000818303905092915050565b600081838115156101ad57fe5b05905092915050565b6000818301905092915050565b60008183029050929150505600a165627a7a723058204c7afb912c14c5b19dd03290d629301c3314ed5fbbd2ab114c4bc7f53491b5bf0029",
    "unlinked_binary": "0x608060405234801561001057600080fd5b506101fc806100206000396000f300608060405260043610610062576000357c0100000000000000000000000000000000000000000000000000000000900463ffffffff168063166dec531461006757806375aac69e146100b2578063eb638f12146100fd578063fa94904d14610148575b600080fd5b34801561007357600080fd5b5061009c6004803603810190808035906020019092919080359060200190929190505050610193565b6040518082815260200191505060405180910390f35b3480156100be57600080fd5b506100e760048036038101908080359060200190929190803590602001909291905050506101a0565b6040518082815260200191505060405180910390f35b34801561010957600080fd5b5061013260048036038101908080359060200190929190803590602001909291905050506101b6565b6040518082815260200191505060405180910390f35b34801561015457600080fd5b5061017d60048036038101908080359060200190929190803590602001909291905050506101c3565b6040518082815260200191505060405180910390f35b6000818303905092915050565b600081838115156101ad57fe5b05905092915050565b6000818301905092915050565b60008183029050929150505600a165627a7a723058204c7afb912c14c5b19dd03290d629301c3314ed5fbbd2ab114c4bc7f53491b5bf0029",
    "compiler": {
        "name": "solc",
        "version": "0.4.23+commit.124ca40d.Emscripten.clang"
    }
}